:020000040800F2
:10000000988A0020C1010008CB4800088D3F0008F5
:10001000C9480008C9090008097C00080000000060
:10002000000000000000000000000000414A00083D
:10003000290E000800000000194900085D4D000865
:10004000DB010008DB010008DB010008DB01000820
:10005000DB010008DB010008DB010008DB01000810
:10006000450E00084B0E0008510E0008DB01000889
:10007000DB010008DB010008DB010008DB010008F0
:10008000DB010008DB010008DB010008DB010008E0
:10009000DB010008DB010008DB010008DB010008D0
:1000A000DB010008DB010008DB010008DB010008C0
:1000B000454F0008DB010008DB010008DB010008F8
:1000C000DB010008DB010008DB010008DB010008A0
:1000D000DB010008DB010008DB010008DB01000890
:1000E000DB010008DB010008DB010008DB01000880
:1000F000DB010008DB010008DB010008DB01000870
:10010000DB010008DB010008DB010008DB0100085F
:10011000DB010008DB010008DB010008DB0100084F
:10012000DB010008DB010008F50B0008DB0100081B
:10013000DB010008DB010008DB010008DB0100082F
:10014000DB010008DB010008DB010008ED480008C6
:10015000DB010008DB010008DB010008DB0100080F
:10016000DB010008DB010008DB010008DB010008FF
:10017000DB010008DB010008DB01000800000000D3
:10018000DB010008DB010008DB010008DB010008DF
:10019000DB010008DB010008DB010008DB010008CF
:1001A000DB010008DB010008DB010008DFF80CD0F0
:1001B00000F054FB0048004771850008988A002031
:1001C0000648804706480047FEE7FEE7FEE7FEE7F1
:1001D000FEE7FEE7FEE7FEE7FEE7FEE7F14E00087A
:1001E000AD0100082DE9F05F0546002092469B46D0
:1001F00088460646814640241BE02846414647463D
:10020000224600F0AFF953465A46C01A914110D326
:1002100011461846224600F096F92D1A67EB0108A0
:100220004F4622460120002100F08DF917EB00090E
:100230004E41201EA4F10104DFDC484631462A4627
:100240004346BDE8F09F40EA01039B0703D009E065
:1002500008C9121F08C0042AFAD203E011F8013BB2
:1002600000F8013B521EF9D27047D2B201E000F80B
:10027000012B491EFBD270470022F6E710B513464A
:100280000A4604461946FFF7F0FF204610BD421CFF
:1002900010F8011B0029FBD1801A704770B50F4D73
:1002A00000B92868002412E00A4602E09E4203D00A
:1002B000521C1378002BF9D1DAB2224305D02BB1AE
:1002C00024B1002100F8011B04E00446401C06781C
:1002D000002EE9D12860204670BD00000C010020EE
:1002E0002DE9FE4F81EA030404F0004421F00041AF
:1002F00000944FF0000B23F0004350EA01045ED05D
:1003000052EA03045BD0C3F30A54C1F30A552C44E8
:10031000A4F2F3340194A0FB0254C1F3130141F49D
:100320008011C3F3130343F4801301FB024400FB69
:10033000034E840A970A44EA815447EA8357A4FB90
:10034000076802958D0A05FB07854FEA932C04FB8D
:100350000C542705029D4FEA065847EA1637B5EBBD
:1003600008056EEB070C870E920E47EA811742EAEA
:100370008312A7FB0201B6EB0B0164EB00042B0D0B
:1003800043EA0C335E1844EB1C50DA465146E7FB57
:100390000201C5F313044FEA0B3343EA14534FEA47
:1003A0000432019C43EA0603A4F10C040294009C6D
:1003B000CDE900B400F02CF903B0BDE8F08F0020C7
:1003C0000146F9E72DE9F04D81EA030404F0004B02
:1003D00021F0004514464FF0000A23F0004150EA96
:1003E000050220D054EA01021DD0C5F30A57024687
:1003F000C5F31303C1F31300C1F30A5640F480158B
:1004000043F48013A7EB0608101BD64608F2FD380C
:1004100073EB050002D308F1010801E092185B417B
:10042000B8F1000F03DA00200146BDE8F08D00208E
:100430004FF48011064684460EE0171B73EB050748
:1004400005D3121B63EB050306434CEA010C490874
:100450004FEA300092185B4150EA0107EDD152EAB1
:10046000030012D082EA040083EA0501084305D0A4
:10047000101BAB4106D20122002306E000224FF000
:10048000004302E06FF0010253101AEB06004CEB40
:10049000085110EB0A0041EB0B01BDE8F04D00F0F4
:1004A000A8B80EB540F2334102910021CDE9001108
:1004B0000A460B4600F0ACF803B000BD00F0004265
:1004C00030F000400AD0C10D01F56071C0F3160094
:1004D00042EA0151C208400711437047002001461B
:1004E000704701F0004330B421F0004150EA0102AE
:1004F00006D00A0DA2F56072C1F31301002A02DCD6
:1005000030BC00207047440F44EAC104C100E01829
:1005100030BC00EBC25000F035B830B50B46014698
:1005200000202022012409E021FA02F59D4205D392
:1005300003FA02F5491B04FA02F52844151EA2F13C
:100540000102F1DC30BD202A04DB203A00FA02F17E
:10055000002070479140C2F1200320FA03F31943B1
:1005600090407047202A04DB203A21FA02F0002153
:10057000704721FA02F3D040C2F1200291400843B3
:10058000194670470029A8BF7047401C490008BFA2
:1005900020F00100704710B4B0FA80FC00FA0CF0B3
:1005A00050EA010404BF10BC704749B1CCF12004EB
:1005B00021FA04F411FA0CF118BF01212143084378
:1005C000A3EB0C01CB1D4FEA00614FEA102042BFA4
:1005D000002010BC704700EBC35010440029A4BF9A
:1005E00010BC7047401C490008BF20F0010010BC3F
:1005F000704710B5141E73F1000408DA401C41F175
:10060000000192185B411A4301D120F0010010BD96
:100610002DE9F04D92469B4611B1B1FA81F202E00C
:10062000B0FA80F220329046FFF78DFF04460F4665
:1006300040EA0A0041EA0B0153465A46084313D0E8
:10064000114653EA010019D0C8F140025046FFF7A5
:1006500089FF05460E46504659464246FFF773FF4E
:10066000084305D0012004E020463946BDE8F08D5E
:100670000020054346EAE0762C4337430A98630599
:10068000E40AA0EB08000022FD0A44EA47540A30BD
:1006900002D500200146E9E7010510196941DDE9AD
:1006A000084500196941BDE8F04DA2E72DE9FE4F6C
:1006B000804681EA0300C00F0C46009021F0004103
:1006C00023F00045B8EB0200A94105D2404621467F
:1006D00090461C460B46024623F00040104347D08C
:1006E000270DC7F30A00C3F30A510290401A019084
:1006F00040286BDAC3F3130040F4801B0098924645
:1007000020B10023D2EB030A63EB0B0B019859468F
:10071000C0F140025046FFF716FF06460D46504610
:100720005946019A00F0ACF810EB08006141002432
:1007300087EA115284EAE7731A4340D0009A62B301
:10074000019A012A4FEA075215DC001B61EB0201F6
:100750004FF0004202EA0752CDE90042001C41F589
:10076000801132462B46FFF753FF03B0BDE8F08FF0
:1007700040462146F9E7001B61EB0201001C41F5F0
:10078000801300185B412018A2F5001747EB030106
:1007900040EAD570B6196D4111E06D084FEA360692
:1007A00045EAC0754FEA0752001B61EB0201001CCD
:1007B00041F5801149084FEA300000195141324695
:1007C0002B4603B0BDE8F04FFFF713BF009801229E
:1007D00040000023D0EB020263EBE0730098214657
:1007E0004FEAE074B8EB000061EB0401E9E783F045
:1007F00000435BE781F0004158E7C1F30A52C1F3BF
:10080000130140F2FF3341F480119A4202DA0020D2
:100810000146704740F233439A42A2F2334202DC6F
:100820005242FFF79FBEFFF78EBE000030B5041E98
:1008300071F1000404DB4FF00044404264EB01011D
:10084000141E73F1000405DB1C464FF000435242B6
:1008500063EB0403994208BF904230BD064C074D3C
:1008600006E0E06840F0010394E807009847103480
:10087000AC42F6D3FFF79EFCA8870008C8870008A3
:10088000202A06DBCB17203A41FA02F043EAE07354
:1008900006E041FA02F3D040C2F120029140084341
:1008A00019467047454910B54A6822F440324A60FB
:1008B0004A6843681A434A6001684A6822F48072B1
:1008C0004A6001684A68036942EA03224A60016893
:1008D0004A6822F040724A6001684A6883681A4395
:1008E0004A6001688A6822F400628A6001688A6846
:1008F000C3681A438A60816A6FF07062D1420168EE
:100900008A6822F070628A6001688A680CD0836A03
:100910001A438A6001688A6822F040528A6001683E
:100920008A68C36A1A4301E022F040528A60016873
:100930008A6822F002028A6001688A68836942EA52
:1009400043028A60016A002901684A680FD042F4B4
:1009500000624A6001684A6822F460424A600168A5
:100960004A68174C436A04EB43331A4301E022F40C
:1009700000624A600168CA6A22F47002CA620168B1
:10098000CA6A838B0F4C04EB03531A43CA62016893
:100990008A6822F400728A6001688A68036B42EAFE
:1009A00043228A6001688A6822F480628A60016852
:1009B0008A68406942EA8020886010BD00230140B7
:1009C00000E0FFFF0000F0FFFEE7000070B504004C
:1009D0000C484FF001024FF010010FD0054601F016
:1009E00016FD204601F0F2FB00221021284601F0FE
:1009F0000EFD2046BDE8704001F0E8BBBDE8704048
:100A000001F005BD001C024070B5184E4FF40065A2
:100A10002946304601F0F2FC012801D0002070BDCB
:100A20000021134802F03EFE12A007F0CDF84FF46B
:100A3000FA7405E02046FFF7C9FF204601F0C6FB27
:100A40002946304601F0DAFC0128F3D011A007F066
:100A5000BBF84FF4FA6001F0B9FB03F0CFFF0021BF
:100A6000034802F003FE012070BD000000140240A4
:100A700010030020446F6F72206F70656E656420F4
:100A8000647572696E67206F7065726174696F6EEC
:100A90000A000000446F6F7220636C6F7365640A14
:100AA00000000000064810B58078002807D000211B
:100AB000044802F0F7FD04A007F086F8012010BDFD
:100AC0008C00002010030020456D657267656E6321
:100AD0007920457869740A0010B50B4C0B49A06960
:100AE000096888420BD1E06958B901206071002182
:100AF000074802F0D7FD07A007F066F801E00020E4
:100B00006071607910BD00008C000020280000207A
:100B1000100300204F7065726174696F6E207469F4
:100B20006D656F75740A0000F8B51D480025A0F1C9
:100B30003004D0ED010A94ED0B0AF4EEC00AF1EE98
:100B400010FA28D2E078012668B9E67010EE100A93
:100B5000FFF7B4FC41EC100B2069009053EC102B14
:100B600010A007F031F8D4E90401884215D9E570E6
:100B70000021164802F096FD2671E06AFFF79EFC00
:100B800041EC100B2069009053EC102B10A007F0E3
:100B90001BF80120F8BDE57025610020F8BD0000BC
:100BA000BC0000204F76657263757272656E743A90
:100BB0002025302E32662C207374617274206F638E
:100BC00054696D65723A2025640A00001003002004
:100BD0004F76657263757272656E743A2025302E99
:100BE00032662C206F6354696D65723A2025640A61
:100BF00000000000014801F073B90000CC030020A0
:100C000001681823CAB2103AB2FBF3F2054B6FF336
:100C10000901032A9B5CC36500D9091D816508464B
:100C2000704700008487000810B5014600208B69DA
:100C30008A6A4FF0C07453B1B3F5005F15D072B13A
:100C4000012A0CD0022A0AD0032A09D104E01AB1E1
:100C5000012A06D0022A03D1C96AC90100D50120A0
:100C600010BDC96AA142FAD010BD002AF7D0012AEE
:100C7000F2D0022AF3D0032AF3D010BD2DE9F041BF
:100C800045A14648FFF70AFB43A10020FFF706FBFA
:100C9000434E0025434A3570017A0124492906D084
:100CA000502920D0462928D0452930D06DE0417AFE
:100CB0004E296AD1807A532867D1107830BB3470BE
:100CC00035A10020FFF7EAFA0178374A374BDFF801
:100CD000E0C0384F4E2924D0532930D0552939D07F
:100CE00044293FD051E0417A41294ED1807A53289E
:100CF0004BD110780128E2D047E0417A412944D114
:100D0000807A4C2841D110780228D8D03DE0417A31
:100D10004D293AD1807A502837D110780328CED087
:100D200033E041784F2930D1817852292DD1C078D4
:100D30004D282AD115701D708CF8005020E04178A4
:100D4000542922D181784F291FD1C07850281CD135
:100D500014701AE04078502817D115708CF80040B4
:100D60001C700DE041784F290FD1817857290CD1A3
:100D7000C0784E2809D115708CF8004002201870F8
:100D800000221021384601F042FBC8210348FFF73A
:100D900073FA7580BDE8F08140000000A4010020D6
:100DA000880000201D0000208E00002097000020F9
:100DB00095000020001C024030B50468256825F429
:100DC00080252560046863608368402B036803D036
:100DD00099600068C26030BD9A600068C16030BD33
:100DE00010B500224FEA020100EB8203521CC3F847
:100DF0007C130F2AF8D300224FF400738418521C7E
:100E000084F81C119A42F9D301704170012282705A
:100E1000C0F8B813027640238371417680F81C1322
:100E200080F81D23002010BD7047000004490022F7
:100E30000B685A6209684A6A8242FCD37047000014
:100E4000D4020020042001F0E7B9082001F0E4B941
:100E5000102001F0E1B900002DE9F04FFB4C4FF0FC
:100E600000082DED028B83B0A0784546002825D1DF
:100E7000F74E4FF48051304601F0C0FA012804D1FA
:100E80008102304601F0BAFAB0B14FF40061304649
:100E900001F0B4FA2178884202D0EEA006F094FE68
:100EA0000221B246304601F0A9FADFF8B4B3DFF808
:100EB000B493012807D0C8E00020606203B0BDEC05
:100EC000028BBDE8F08F07F03FFCA0730128F2D140
:100ED00002215646504601F091FA0128EBD101213A
:100EE000304601F08BFA0128E5D18102304601F04D
:100EF00085FA0128DFD10103304601F07FFA00288E
:100F0000D9D199F80000032805D14FF49672002139
:100F1000012003F00BFFD4A006F056FEDBF80070B2
:100F200003F06CFD00224FF48041D44801F06FFAC9
:100F300003F0E2FC0021D24802F098FB642004F0A8
:100F4000E3FA3BE007F0CAFB84ED0B0A02213046CE
:100F500001F054FAC0B34FF48061304601F04EFA0C
:100F600020B1FFF7B9FD00287ED105E00021C5A022
:100F7000616206F029FE27E004F0D8FAA0B1012052
:100F80006070642004F0C0FA28466D1CADB20F28D2
:100F90000AD30025E06AFFF791FA41EC100BBFA0DD
:100FA00053EC102B06F010FEFFF72EFDFFF7BCFDF3
:100FB000012859D0FFF776FD0028D5D1022130460F
:100FC00001F01CFA0128BDD00021AD4802F06AFBF7
:100FD000B7A0616A06F0F8FD00EE107ADBF8006059
:100FE000B949F8EEC00A00EE106AB8EEC00A30EE59
:100FF000C00AB0EEC00A10EE100A884206DDA07AE0
:1010000020B9606A002801DD401E606210EE100AFF
:10101000FFF754FACDE9000132463946ABA006F09D
:10102000D3FD0121B348626A02F033F804F076FA86
:1010300099F80000032808D14FF4967001F0C6F823
:101040000121C822084603F071FE0121504601F03B
:10105000D5F9E8B14FF48061504601F0CFF900BFF7
:101060004FF48051564600E0D8E0504601F0C6F9F2
:1010700001287FF423AF87023946304601F0BEF9DC
:101080000128F6D1804699F8000003287ED0D1E1EE
:1010900007F044FB60730128E2D101215646504617
:1010A00001F0ACF90028DBD10221304601F0A6F9AD
:1010B0000028D5D14FF48051B246304601F09EF958
:1010C0000028CDD199F80000032805D14FF496727D
:1010D0000021012003F02AFE87A0DBF8006006F063
:1010E00073FD03F08BFC01229103644801F08FF93A
:1010F00003F002FC0021624802F0B8FA642004F018
:1011000003FA274607F0EAFA87ED0B0A0221504658
:1011100001F074F901280AD04FF480717C4801F085
:101120006DF900B3FFF7D8FC002877D153E079A020
:1011300006F04AFD0021524802F0B4FA322001F0D4
:1011400045F803F05BFC00224FF480414B4801F06E
:101150005EF903F0D1FB0021494802F087FA6420D0
:1011600004F0D2F95BE072A0796A06F02DFD00214F
:10117000434802F097FA00EE106ADBF80080F8EEC0
:10118000C00A00EE108AB8EEC00A00E04DE130EE71
:10119000C00A4D49B0EEC00A10EE100A884207DDC1
:1011A000B97A384621B9416A642901DA491C796261
:1011B00010EE100AFFF782F9CDE9000142463146F0
:1011C00042A006F001FD01214A487A6A01F061FF60
:1011D00004F0A4F944E704F0A9F9A0B10120787063
:1011E000642004F091F928466D1CADB20F280AD393
:1011F0000025F86AFFF762F941EC100B27A053ECC9
:10120000102B06F0E1FCFFF7FFFBFFF78DFC012838
:1012100004D0FFF747FC00283FF474AF52E107F019
:101220005DFA87ED0B0A0221504601F0E7F850B154
:101230004FF48061504601F0E1F828B1FFF74CFC13
:101240000028EBD19FE084E080E000008C000020CB
:1012500000140240446F6F7220436C6F73650A0084
:10126000280000201D00002054524159204F5554A1
:1012700009204D6F746F722055500A00000402401F
:10128000100300205472617920726561636865649F
:1012900020546F703A2025640A0A00006D6F742094
:1012A0006375723A2025302E326620410A00000014
:1012B00054726179207265616368656420495232B5
:1012C0003A2025640A0A00000000F041745F656E50
:1012D00063413A202564200920656E635F413A200E
:1012E00025640920646966663A2025302E31660A35
:1012F00020000000B40200205452415920494E09F8
:10130000204D6F746F7220444F574E0A000000004A
:1013100000180240547261792072656163686564E7
:101320002062656C6F77204952320A0A0000000083
:1013300054726179207265616368656420426F74DC
:10134000746F6D3A2025640A0A00000079A006F047
:101350003BFC00217C4802F0A5F900EE106A7B49B5
:10136000D846F8EEC00A9BED000AB8EEC00A30EE8F
:10137000C00AB0EEC08A18EE100A88422DDDB97A94
:10138000384629B329E004F0D1F8A8B101207870DB
:10139000642004F0B9F828466D1CADB20F280BD3B9
:1013A0000025F86AFFF78AF841EC100B53EC102B7C
:1013B000AFF2181006F008FCFFF726FBFFF7B4FBAE
:1013C00001287FD0FFF76EFB00283FF4CBAE79E019
:1013D000416A642901DA491C796201215C487A6A10
:1013E00001F057FE04F09AF818EE100AFFF766F8BD
:1013F000CDE900013146AFF22C10D8F8002006F0FC
:10140000E3FBAFF25410796A06F0DEFB99F80000B6
:1014100003287FF4DFAE4FF4967000F0D7FE012171
:10142000C822084603F082FC1AE6C82200210120E7
:1014300003F07CFC47A006F0C7FB4FF4FA7000F005
:10144000C5FE00224FF48041484800F0E0FF03F061
:10145000D5FA03F051FA00213B4802F007F9642065
:1014600004F052F844E000BF07F038F984ED0B0AAD
:101470000221304600F0C2FFE8B3FFF72DFB08BBA6
:1014800004F054F8A8B101206070642004F03CF826
:1014900028466D1CADB20F280BD30025E06AFFF77C
:1014A0000DF841EC100B53EC102BAFF2102006F0AE
:1014B0008BFBFFF7A9FAFFF737FB012802D0FFF7F4
:1014C000F1FAA8B199F8000003287FF4F7ACB8F15D
:1014D000000FFAD14FF4967000F078FE03B0C822E6
:1014E000BDEC028B0121BDE8F04F084603F01EBCA5
:1014F0003946304600E009E000F080FF012805D1C0
:101500000221304600F07AFF0128ADD000210E48BC
:1015100002F0C8F816A006F057FB002201210C4883
:10152000626201F0B6FD03B0BDEC028BBDE8F04F86
:1015300003F0F4BF54726179207265616368656479
:1015400020546F700A0A0000100300200000F041D0
:10155000B40200207472617920656D70747909207D
:101560004D6F746F722055500A0000000004024055
:1015700054726179207265616368656420546F708C
:101580000A000000002200F001B8000030B50E4B48
:10159000054601205C7A002C14D1587A1C54587AE4
:1015A00003EB800045605D7A03F108002A54587A05
:1015B000421C5A72303008703A2048702F208870D0
:1015C000CC70002030BD00008C0A00202DE9FC5FAB
:1015D000F84C00273D46A078002831D1DFF8D883A9
:1015E0004FF48051404600F009FF0026DFF8CCA3FD
:1015F0004FF48079012804D14946504600F0FEFEA0
:10160000E8B14FF40061404600F0F8FE21788842CE
:1016100002D0EBA006F0D8FA4FF48051E64800F073
:10162000EDFEDFF8A8B34FF0010801280AD04FF40F
:101630008051E14800F0E2FE00286AD073E0666263
:10164000BDE8FC9F4946504600F0D8FE01285DD118
:10165000012764220021384603F068FBDCA006F075
:10166000B3FA4FF4FA7000F0B1FD03F0C7F90122AC
:101670009103DD4800F0CBFE03F03EF90021DB488A
:1016800001F0F4FF642003F03FFF28E007F026F8A4
:1016900084ED0B0AFFF720FA0028D1D103F046FFB2
:1016A00098B184F80180642003F02EFF28466D1C59
:1016B0000F280ADB0025E06AFEF700FF41EC100B63
:1016C000CBA053EC102B06F07FFAFFF79DF9FFF744
:1016D0002BFA0128B4D0FFF7E5F90028B0D149462C
:1016E000504600F08BFE0128D0D00021BF4801F009
:1016F000D9FFC4A006F068FA666232460121C748E5
:10170000CBF8006001F0C5FC03F008FF84F8068008
:1017100009E0A079012806D1E671C1A006F054FACB
:10172000A67184F807800221A34800F067FE012813
:1017300086D107F009F8A073012810D102219E4834
:1017400000F05CFE01280AD181029B4800F056FEA1
:10175000012804D10103984800F050FE38B34FF43B
:101760008061954800F04AFE002896D1C82000F01C
:101770002DFD32220021012003F0D8FAACA006F0A2
:1017800023FA4FF4FA7000F021FD03F037F901223B
:101790009103954800F03BFE642003F0B5FE03F092
:1017A000ABF80021914801F061FF4646ECE04FF4B0
:1017B00096720021012003F0B9FAA5A006F004FA00
:1017C000DA46DBF800B003F019F900224FF480414B
:1017D000854800F01CFE03F08FF80021834801F0DB
:1017E00045FF642003F090FEA1464FE006F076FF2F
:1017F00089ED0B0A0221204600F000FE00284CD0A3
:101800004FF48051204600F0F9FD01280AD04FF432
:101810008061204600F0F2FD80B1FFF75DF90028FD
:101820007AD111E00021714801F03CFFC82000F09E
:10183000CDFCBDE8FC5F8BA006F0C6B991A0D9F83D
:10184000241006F0C1F928E003F070FEA0B14C4668
:1018500089F80180642003F057FE28466D1C0F288C
:101860000ADB0025E06AFEF729FE41EC100B60A0C0
:1018700053EC102B06F0A8F9FFF7C6F8FFF754F960
:10188000012871D0FFF70EF900286DD14A4C0221D2
:10189000204600F0B3FD0128A8D00021534801F0F4
:1018A00001FF99F807004C46012815D000EE10BA48
:1018B000DAF800507949F8EEC00A00EE105AB8EE96
:1018C000C00A30EEC00AB0EEC00A10EE100A88421C
:1018D00012DDA07A58B10FE0E671A16ADAF80000D3
:1018E000081A222190FBF1F0401E60620FE0606A4E
:1018F000002801DD401E606210EE100AFEF7DEFDDA
:10190000CDE900012A46594665A006F05DF96EA0B2
:10191000616A06F059F944E026E000BF06F0DEFEF9
:1019200084ED0B0AFFF7D8F8F0B903F0FFFD90B192
:101930006670642003F0E8FD28466D1C0F280ADB62
:101940000025E06AFEF7BAFD41EC100B28A053EC2D
:10195000102B06F039F9FFF757F8FFF7E5F80128E3
:1019600002D0FFF79FF878B1002F7FF469AE00BF77
:101970004FF4967000F02AFC02B0C822BDE8F05F78
:101980000121084603F0D2B94946504600F036FD21
:101990000128C3D00021154801F084FE19A006F0EB
:1019A00013F901211D48626A01F073FB03F0B6FDD3
:1019B000DEE700008C000020001402400018024006
:1019C000446F6F7220436C6F73650A00280000201B
:1019D0007472617920656D70747909204D6F746F30
:1019E0007220444F574E0A000004024010030020AA
:1019F0006D6F74206375723A2025302E3266204157
:101A00000A00000054726179207265616368656440
:101A100020426F74746F6D0A00000000B402002051
:101A20005472617920726566696C6C65640A0000A5
:101A300054726179207265616368656420544F5007
:101A400009204D6F746F7220444F574E0A000000FA
:101A500074726179206F757409204D6F746F7220F4
:101A600055500A005472617920656D707479206454
:101A70006972656374696F6E206368616E6765641F
:101A800009000000547261792072656163686564C1
:101A900020546F703A2025640A0A00000000F041CB
:101AA000745F656E63413A202564200920656E638A
:101AB0005F413A2025640920646966663A20253032
:101AC0002E31660A2000000054726179207265612F
:101AD00063686564204952323A2025640A0A00008E
:101AE00078B50024009490F83C20012A19D00122F6
:101AF00080F83C200A6807230568092A13D9EE6894
:101B00000A3A02EB420293409E43EE600A788B68E9
:101B10000A3A02EB420293400268D5682B43D36035
:101B200010E0022078BD2E6902EB420293409E43F2
:101B30002E610A788B6802EB4202934002681569B5
:101B40002B4313614A681F23072A13D205686E6B63
:101B5000521E02EB820293409E436E630B790A8809
:101B60005B1E92B203EB83039A4003685D6B2A43CA
:101B70005A6327E005680D2A12D22E6BD21F02EBA2
:101B8000820293409E432E630B790A88DB1F92B238
:101B900003EB83039A4003681D6B2A431A6311E029
:101BA000EE6A0D3A02EB820293409E43EE620B799D
:101BB0000A880D3B92B203EB83039A400368DD6A07
:101BC0002A43DA62174B0568154A9D4206D10D6813
:101BD000122D03D1556845F48005556005689D4276
:101BE00019D1114D0B68AB4201D0112B13D15368A1
:101BF00043F4000353600968A9420CD10B490C4A15
:101C00000968B1FBF2F101EB8101490000E0491ED6
:101C100000910029FBD180F83C40002078BD0000F5
:101C2000002301400020014012000010E8000020C5
:101C300040420F000068C06C704770B504004FF060
:101C4000000503D0206C002610B107E0012070BD14
:101C5000666484F83C60204600F01AF8206CC006E8
:101C600010D4206C20F4885040F0020020642046FC
:101C7000FEF718FE6664206C20F0020040F00100C0
:101C8000206400E0012584F83C60284670BD000017
:101C900030B50068124987B088421FD1114800252D
:101CA000016841F4807101600068032400F48070D1
:101CB00005900D208DE8310069460B4800F0B8FA18
:101CC00030208DE831006946084800F0B1FA0094F0
:101CD00069460748CDE9014500F0AAFA07B030BDD2
:101CE0000020014044380240000802400000024049
:101CF000000402402DE9F041044600680D46816869
:101D00004FF0000749050BD58068C00508D5206C49
:101D100040F02000206484F83C700120BDE8F08190
:101D200000F07AFB06460FE0681C0DD025B100F0EC
:101D300073FB801BA84207D9206C40F0040020648C
:101D400084F83C700320E9E7206800688007EBD541
:101D500021686FF012000860206C40F4007020646D
:101D60002068816811F0405F13D1A16989B9C16A07
:101D700011F4700F02D0806840050AD4206C20F462
:101D800080702064206CC00403D4206C40F00100FB
:101D900020640020C2E7000018B50021009190F8EF
:101DA0003C20012A07D0012280F83C200268936879
:101DB000DB0702D011E0022018BD936843F0010355
:101DC0009360204A204B1268B2FBF3F202EB42020E
:101DD00000E0521E0092002AFBD102689368DB07E4
:101DE0002DD0036C40F20164A34343F48073036479
:101DF00053685B0505D5036C23F4005343F480530B
:101E00000364036CDB0404D5436C23F006034364D2
:101E100000E0416480F83C100C496FF0220313602D
:101E200049680068C90602D00949884207D181681B
:101E300011F0405F03D1816841F080418160002052
:101E400018BD0000E800002040420F0000230140C0
:101E50000020014090F83C1001290CD0012180F8AD
:101E60003C1001688A6822F001028A600168896872
:101E7000C90702D007E002207047016C21F48851A5
:101E800041F001010164002180F83C1008467047D0
:101E900010B5040002D0607910B106E0012010BD39
:101EA00000202071204600F007F802206071012018
:101EB0006071002010BD000008B500680649884226
:101EC00008D10648016841F480510160006800F4BF
:101ED0008050009008BD00000030024030380240C1
:101EE0002DE9F84304464FF00009CDF8009063480F
:101EF0004FF41651A56D0068B0FBF1F72E6894F809
:101F00005C10082000FA01F131420FD021680A6804
:101F100052070BD50A6822F004020A6094F85C109C
:101F20008840A860606D40F00100606594F85C1026
:101F30004FF0010808FA01F0304208D021684969E1
:101F4000090604D5A860606D40F00200606594F851
:101F50005C1004208840304208D021680968890755
:101F600004D5A860606D40F00400606594F85C10D2
:101F700010208840304218D021680968090714D51C
:101F8000A86020680168490304D50068000308D5EB
:101F9000A16C07E00168C90503D4016821F00801BC
:101FA0000160216C09B12046884794F85C1020201C
:101FB0008840304231D021680968C9062DD5A86013
:101FC00094F8350005282068016806D0490347D5F4
:101FD000006800031DD4616C1CE021F01601016053
:101FE0002068416921F080014161206C08B9A06C32
:101FF00020B12068016821F00801016094F85C10AC
:102000003F208840A86084F8349084F83580216DA2
:102010001FE0E16B09B120468847606D00282BD096
:10202000606DC00714D0052084F835002068016871
:1020300021F0010101600098401C0090B84203D8D3
:1020400020680068C007F6D184F8349084F83580A1
:10205000E16C002910D001B02046BDE8F0430847EC
:102060000168C905D5D4016821F01001016084F828
:10207000349084F83580CCE7BDE8F883E800002090
:102080002DE9F041044600F0C7F906465CB1002591
:1020900084F83450022084F835002068016821F06B
:1020A000010101600DE00120BDE8F08100F0B4F90C
:1020B000801B052805D920206065032084F83500A1
:1020C000F2E720680068C007F0D122681168204854
:1020D0000140D4E901031843D4E9033633431843DC
:1020E00063691843A3691843E3691843236A1843D3
:1020F0000843616A042903D1D4E90B131943084347
:10210000106020684069666A20F0070130460E437F
:10211000012704280CD1A06A0643E06A40B120469A
:10212000FEF782FD20B14020606584F83570BAE783
:10213000206846612046FEF763FD94F85C203F214D
:1021400091408160656584F835700020ACE700003F
:102150003F8010F02DE9F0410446866D90F8340080
:10216000002501280DD0012084F8340094F8357042
:102170000020012F07D084F8340002252846BDE84E
:10218000F0810220FBE7022784F835706065204665
:10219000FEF712FE94F85C103F208840B060206883
:1021A000016841F0160101602068416941F0800139
:1021B0004161206C20B12068016841F00801016094
:1021C0002068016841F001010160D7E770B504465D
:1021D00000F022F90546601C02D00448007804444F
:1021E00000F01AF9401BA042FAD370BDDC000020B9
:1021F00010B5042809D10821054800F0FFF8054969
:102200000128086802D0401C086010BD401EFBE792
:102210000018024028000020044910B50A68024254
:1022200002D00860FFF7E4FF10BD0000143C01403D
:102230002DE9F84FDFF890B100224FF001084FF080
:10224000030A4FF00F090BF1040E00BF0B6808FAE8
:1022500002F42340A3426ED14D68022D01D0122D0D
:102260000ED1D50800EB850CDCF820505607F70E90
:1022700009FA07F6B5430E69BE402E43CCF820603C
:10228000066855000F790AFA05FC07F0030726EAED
:102290000C06AF40374307604E68012E05D0022E72
:1022A00003D0112E01D0122E0ED18768CE6827EAF6
:1022B0000C07AE403E4386604668A6430C79C4F3E3
:1022C0000014944034434460C4688E6824EA0C04CB
:1022D000AE402643C6604C68E4006FD53B4C256891
:1022E00045F480452560246822F0030504F4804409
:1022F0000094374C2E19D6F8084895072F0F09FA85
:1023000007F5AC43334DA84201D100252EE0324DF4
:10231000A84201D1012529E0304DA84201D1022572
:1023200024E02F4DA84201D103251FE02D4DA842E6
:1023300002D104251AE041E02B4DA84201D1052528
:1023400014E02A4DA84201D106250FE0284DA842ED
:1023500001D107250AE0274DA84201D1082505E053
:10236000254DA84201D1092500E00A25BD4025439D
:10237000C6F80858DBF800405D464E689C43F603FB
:1023800000D51C432C60DEF8004075464E689C4327
:10239000B60300D51C432C600B4D08352C684E68E5
:1023A0009C43F60200D51C432C60074D0C352C686D
:1023B0004E689C43B60200D51C432C60521C102A68
:1023C000FFF444AFBDE8F88F003C014044380240C0
:1023D00000300140000002400004024000080240BA
:1023E000000C02400010024000140240001802409D
:1023F000001C024000200240002402400069084006
:1024000000D00120704742694A40426170470AB1DA
:10241000816170470904FBE701488068704700004C
:10242000DC000020D0F8940203F0B1BED0F8940292
:1024300003F0C1BE006805F06FB8006805F070B821
:1024400001EB810100EBC10090F85C00704701EBEB
:10245000810100EBC100C06C704710B5044690F8D4
:102460009002012809D0012084F89002206805F02C
:1024700062F8002084F8900210BD022010BDFEB565
:102480000546DDE9096095F89042089F012C1ED0B1
:10249000012485F8904201EB810405EBC40402F0AD
:1024A0007F0C04F8383F20816170E67184F802C027
:1024B0004FEAD21C84F803C027710097CDE9016070
:1024C000286805F0DDF8002185F89012FEBD022095
:1024D000FEBD70472DE9F00301EB8104DDE90689BB
:1024E000DDE908C700EBC404022684F83B2084F829
:1024F0003F30B8F1000F0AD084F84260002553B194
:10250000012B3FD0022B1DD0032B2AD120E0032525
:1025100084F84250F2E7B8F1010F22D10ABBBCF1B6
:10252000000F10D1012284F8512002E084F84250BB
:1025300001E084F8426094F85C20022A11D084F80B
:102540003D700EE02AB994F85120002AF1D1EDE750
:1025500012B194F8502001E094F8512092B184F81F
:102560004260C4E9119C84F85C50E56484F8391039
:1025700084F85D50027C04F138010068BDE8F00386
:1025800005F0FAB884F84250EBE700002DE9F0417D
:10259000044600680025064604F0C9FF01287DD1E5
:1025A000206805F032FA002878D0206805F02DFA6E
:1025B000800203D521684FF400104861206805F0BF
:1025C00024FAC00203D521684FF4801048612068C6
:1025D00005F01BFA400103D521684FF08060486187
:1025E000206805F012FA800702D5216802204861B0
:1025F000206805F00AFA800010D5D6F8400420F0D3
:102600002E00C6F840042046FFF710FF0121206885
:1026100005F0E0F921684FF000504861206805F0AE
:10262000F4F9C00102D5204601F022FC206805F033
:10263000ECF9000705D5204600F0A1F82168082034
:102640004861206805F0E1F9800120D5206805F097
:102650008CF807464FF0010812E000BF08FA05F0B9
:1026600038420CD006EB4510D0F80005E9B2000462
:10267000204602D501F0D8F901E001F0EEFA6D1C18
:10268000A068A842EAD821684FF00070486120682D
:1026900005F0BBF9C0060ED5206800E00BE08169AB
:1026A00021F010018161204601F038FC2068816929
:1026B00041F010018161BDE8F08130B58BB00400BC
:1026C00026D0032084F89102204600F023F82068E9
:1026D00004F0BEFE04F1100128220D466846FDF705
:1026E000B2FD94E80F0004F061FE0121206805F0BE
:1026F000E7F9282229466846FDF7A5FD94E80F0072
:1027000005F0FEF8012084F8910200200BB030BDE6
:102710000120FBE700B5006887B0B0F1A04F25D1DC
:102720004FF4C0500090022001900020029003203E
:1027300003900A20049069460D48FFF779FD0D4883
:10274000016841F0800101600A481030016841F4DD
:10275000804101600068002200F48040059011462D
:10276000432000F0C9F8432000F0BAF807B000BDDC
:102770000000024034380240006805F08BB9D0F800
:10278000940203F062BD10B5044690F8900201284F
:102790000DD0012084F89002206804F095FE0121FC
:1027A000206804F07BFE002084F8900210BD022017
:1027B00010BD10B5044690F89002012809D0012000
:1027C00084F89002206805F091F9002084F89002C6
:1027D00010BD022010BD000002488168027811443B
:1027E00081607047DC0000200B4810B5016841F49F
:1027F00000710160016841F480610160016841F489
:1028000080710160032000F097F8002000F006F8C6
:1028100000F024F8002010BD003C024070B50D4DC2
:1028200004464FF47A712878B1FBF0F00A49096840
:10283000B1FBF0F000F0BCFC48B9102C07D200222C
:102840002146501E00F058F800206C6070BD012039
:1028500070BD0000DC000020E80000201F4808B523
:10286000016841F480410160006800F480400090FC
:102870001A48001F016841F080510160006800F0B3
:1028800080500090032000F057F8002211466FF0AE
:102890000B0000F031F8002211466FF00A0000F042
:1028A0002BF8002211466FF0090000F025F80022F5
:1028B0001146501F00F020F800221146101F00F0B2
:1028C0001BF800221146901E00F016F80022BDE809
:1028D00008401146501E00F00FB800004438024076
:1028E00000F01F02012191404009800000F1E0202A
:1028F000C0F8001170470000F0B40E4B1B680C4686
:10290000C3F30223C3F10705042D00D90425191DC3
:10291000072901D2002300E0DB1E012606FA05F19B
:10292000491E214099409E40761E16403143F0BC1E
:1029300001F0CCBF0CED00E0064900F0070208688A
:102940004FF6FF03184040EA0220034A1043086094
:10295000704700000CED00E00000FA052DE9F84F8B
:1029600004460068DFF804A2814F824DC1074FF092
:1029700001084FF0000601D180073CD5CAF8686015
:10298000FFF74AFD814605E0FFF746FDA0EB090091
:10299000022878D828680001F6D42078C107764844
:1029A00005D06168227A890141EA027101602178CB
:1029B000890711D501686268237B9201C1F3027116
:1029C00042EA036242EA017101603868E16920F07D
:1029D0001F00491E08433860CAF86880FFF71CFDD5
:1029E000814605E0FFF718FDA0EB090002284AD850
:1029F00028680001F6D52068410701D400074CD5AE
:102A0000CAF87060FFF708FD814605E0FFF704FD96
:102A1000A0EB0900022836D82868C0438000F5D50D
:102A200020784107554814D501682269237D920119
:102A3000C1F3027142EA036242EA0171016039683E
:102A4000226A6FF0FF0321F4F85103EB02221143D5
:102A500039602178090710D501682269C1F3036143
:102A6000920142EA0161227E41EA02710160386806
:102A7000616A20F4403008433860CAF87080FFF77C
:102A8000CBFC074605E048E0FFF7C6FCC01B022868
:102A900043D82868C0438000F6D42078800653D5F8
:102AA00034484030016841F0805101600068344D85
:102AB00000F080500090286840F480702860FFF794
:102AC000ABFC074605E000BFFFF7A6FCC01B0228D1
:102AD00023D82868C005F7D5274D143D286810F481
:102AE000407020D0218D01F4407181421BD02868B4
:102AF000244920F44070C1F800800E6028602868E6
:102B0000C00710D0FFF788FC064641F2883707E07F
:102B1000FFF782FC801BB84202D90320BDE8F88F82
:102B200028688007F4D5A16A1248C1F30122083051
:102B3000032A13D0016821F4F81101602868218D5F
:102B4000C1F30B01084328602078C00604D50E4964
:102B500094F82C00C1F8E0010020DFE702680B4B7D
:102B600022F4F81219400A430260E7E700004742E6
:102B70008C380240003802408438024088380240D5
:102B800000700040400E474200104742FFFCFF0F1C
:102B90002DE9F0470E46050065D0DFF81481D8F81E
:102BA0000000F7B200F00F00B04207D288F80070C2
:102BB000D8F8000000F00F00B04254D128683D4C16
:102BC000810712D5400703D5206840F4E05020600B
:102BD0002878000703D5206840F460402060206812
:102BE000A96820F0F000084320602878C0072DD0A5
:102BF000304968680839012812D0022813D0032808
:102C000011D00968890700292DDA216821F0030114
:102C100001432160FFF700FC814641F2883A0EE053
:102C200009688903EFE709688901ECE7FFF7F4FB1E
:102C3000A0EB0901514502D90320BDE8F0872068C7
:102C4000696800F00C00B0EB810FEFD1D8F80010EC
:102C5000404601F00F01B14207D90770006800F04B
:102C60000F00B04201D00120E7E72878400705D5E2
:102C70002068E96820F4E0500843206028780007C5
:102C800006D52068296920F4604040EAC100206030
:102C900000F03CF82168084AC1F30311515CC840B8
:102CA000064908600020FFF7B9FD0020C5E70000D5
:102CB000003C0240083802408C870008E8000020F1
:102CC0000148006870470000E800002004480549FA
:102CD00000680968044AC1F38221515CC84070470A
:102CE000E8000020083802409C8700080448054995
:102CF00000680968044AC1F34231515CC84070471A
:102D0000E8000020083802409C870008154810B5EC
:102D1000006810F00C02144813D04110042A0FD0A0
:102D2000082A0ED10F4C241F2268236802F03F02AC
:102D30005B0207D52068C0F38810A0FB010106E004
:102D4000084610BD2168C1F38811A1FB00010023D2
:102D5000FDF748FA2168C1F30141491C4900B0FB65
:102D6000F1F010BD083802400024F4002DE9F84FBE
:102D7000050076D02878DFF8F8B2BE4CC00749D0FD
:102D8000DBF800105846C1F38101012908D0006822
:102D9000C0F3810002280AD1201D0068400206D538
:102DA0002068800336D568680028E2D032E0686881
:102DB000B0F5803F10D0B0F5A02F206810D020F4DF
:102DC00080302060206820F4802020606868A0B1F6
:102DD000FFF722FB06460CE0206840F48030F4E761
:102DE00040F480202060F7E7FFF716FB801B642883
:102DF00073D820688003F7D50CE0FFF70DFB06467B
:102E000005E000BFFFF708FB801B6428F0D82068AE
:102E10008003F7D42878DFF8608280074FF000093C
:102E20003ED5DBF80010584611F00C0F09D00068B1
:102E3000C0F3810002280BD18D48001F00684002BA
:102E400006D42068800715D5E868012809D111E06B
:102E5000E868B8B10120C8F80000FFF7DDFA0646BF
:102E600005E002E1FFF7D8FA801B0228C0D82068ED
:102E70008007F7D52068296920F0F80040EAC100F2
:102E800020600DE0C8F80090FFF7C6FA064604E09F
:102E9000FFF7C2FA801B02281FD820688007F7D4EA
:102EA0002878000722D5724E744869696C3671B172
:102EB00001210160FFF7B0FA074604E0FFF7ACFA22
:102EC000C01B022809D830688007F7D50EE0C0F88B
:102ED0000090FFF7A1FA074605E083E0FFF79CFAB0
:102EE000C01B02287ED830688007F7D428784007B6
:102EF00068D5DFF87CA100270AF1380ADAF800006B
:102F0000C0000BD4DAF8001041F08051CAF800106C
:102F1000DAF80000012700F080500090584E306829
:102F2000C00510D4306840F480703060FFF774FA48
:102F3000009005E0FFF770FA0099401A022851D876
:102F40003068C005F6D54A4EA868683601280FD00B
:102F50000528306810D020F001003060306820F083
:102F600004003060A868B8B1FFF756FA00900FE08F
:102F7000306840F00100F4E740F004003060F7E70B
:102F8000FFF74AFA0099411A41F28830814264D829
:102F900030688007F4D50EE0FFF73EFA009007E0B6
:102FA000FFF73AFA0099411A41F28830814254D829
:102FB00030688007F4D42FB1DAF8001021F0805186
:102FC000CAF80010A869C0B3DBF80010C1F3810192
:102FD00002294AD00228484607D0C8F86000FFF707
:102FE0001BFA00E039E005463AE04746C8F86000C1
:102FF000FFF712FA064604E0FFF70EFA801B0228DC
:103000002BD820688001F7D4D5E907010843A96AC5
:103010001C4A490802EB01416A6A41EA82110843ED
:1030200095F82C1040EA01611148001F0160012051
:103030003866FFF7F1F9054605E014E0FFF7ECF913
:10304000401B022809D820688001F7D50BE000BF9B
:10305000FFF7E2F9401B022802D90320BDE8F88FF0
:1030600020688001F4D40020F8E70120F6E7000092
:10307000083802400038024000004742800E4742B4
:10308000007000400000FFFF0068503050F8210041
:1030900070470068503040F82120704770B5040038
:1030A00002D0607F10B106E0012070BD00202077C3
:1030B000204600F049F8022060772168CA20486263
:1030C000216853204862204601F028FCFF25042691
:1030D00018BB206881681B4A11408160216888689C
:1030E00062681043D4E904231A43104388602168BE
:1030F000E068086120680169228941EA02410161B2
:103100002068C16821F08001C16020688068800665
:1031100007D4204600F024F818B12068456266778D
:10312000C2E72068016C21F4802101642068016CF1
:10313000A269114301642068456201206077002084
:1031400070BD0000BFFF8FFF00680349884202D1B5
:103150000249012008607047002800403C0E4742A9
:1031600070B504460068C16821F0A001C160FFF796
:1031700053F905464FF47A7607E000BFFFF74CF9A4
:10318000401BB04201D9032070BD2068C068800692
:10319000F4D5002070BD4FF0E0210428086903D069
:1031A00020F004000861704740F00400FAE770471F
:1031B00010B5401EB0F1807F01D3012010BD4FF04B
:1031C000E02460610F21601701F080FB0020A06106
:1031D00007202061002010BD10B5FFF7E8FF10BDEB
:1031E0007047704730B590F83820012A20D001226E
:1031F00080F83820022380F8393003685C6824F0B6
:1032000070045C6003685C680D682C435C60036854
:103210009C6824F080049C6003689C6849680C43A7
:103220009C6080F83920002180F83810084630BDB5
:10323000022030BD10B5040003D094F8390010B15D
:1032400007E0012010BD002084F83800204600F07F
:103250000DF8022084F83900211D206801F078FE65
:10326000012084F83900002010BD000008B5006876
:103270001149884209D11148016841F001010160FA
:10328000006800F00100009008BDB0F1804FFBD154
:103290000A48001F016841F0010101600068002236
:1032A00000F00100009002211C20FFF725FBBDE883
:1032B00008401C20FFF714BB0000014044380240C6
:1032C000022180F8391001680A6842F001020A60A0
:1032D000012180F839100020704770B5044690F83D
:1032E0003800012817D0012584F83850022084F8CE
:1032F00039002068826822F0770222F47F428260DF
:103300000868502837D00DDC202859D005DC88B358
:10331000102841D151E0022070BD302853D0402800
:103320003AD13FE060282ED070280BD0B0F5805FF6
:1033300003D0B0F5005F2FD110E02068816821F044
:10334000070115E0CB68D1E90121206801F06BFE8F
:103350002168886840F0770088601DE0CB68D1E97B
:103360000121206801F05FFE2068816841F48041FE
:10337000816011E01EE0CA684968206801F01CFF06
:103380005021206806E0CA684968206801F025FFDE
:103390006021206801F051FE84F83950002084F843
:1033A000380070BDCA684968206801F005FF4021F7
:1033B0002068EFE700212068ECE710212068E9E7AA
:1033C00020212068E6E730212068E3E7704770B5E8
:1033D0000446006801694FF00005C943890715D408
:1033E000C168C943890711D4E91E01610120207613
:1033F000206880698007204602D0FFF7E7FF04E0DD
:1034000000F0AEF8204600F030F92576206801691A
:10341000C943490717D4C168C943490713D46FF09A
:1034200004010161022020762068806910F4407F49
:10343000204602D0FFF7CAFF04E000F091F82046D2
:1034400000F013F9257620680169C943090716D4ED
:10345000C168C943090712D46FF008010161042053
:1034600020762068C0698007204602D0FFF7AEFFB3
:1034700004E000F075F8204600F0F7F825762068A3
:103480000169C943C90617D4C168C943C90613D421
:103490006FF010010161082020762068C06910F4E7
:1034A000407F204602D0FFF791FF04E000F058F87B
:1034B000204600F0DAF8257620680169C943C9077B
:1034C00008D1C168C943C90704D1891E01612046DA
:1034D00000F016F920680169C943090609D4C168DA
:1034E000C943090605D46FF0800101612046FFF74A
:1034F00077FE20680169C943490609D4C168C943F8
:10350000490605D46FF040010161204600F01AF928
:1035100020680169C94389060BD4C168C94389067B
:1035200007D46FF0200101612046BDE87040FFF72D
:1035300058BE70BD00B5006885B0B0F1804F0BD1AA
:1035400001200221CDE9000100210291CDE9031003
:1035500069460248FEF76CFE05B000BD000002405F
:10356000704770B5044690F838000D4601280DD01C
:10357000012684F83860022084F8390042B1042A18
:1035800018D0082A2AD00C2A4DD139E0022070BD6B
:10359000206801F05BFD2068816941F008018161CC
:1035A0002068816921F004018161206881692A69AC
:1035B000114311E0206801F075FD2068816941F434
:1035C000006181612068816921F4806181612068E6
:1035D00081692A6941EA0221816124E0206801F0C1
:1035E00093FD2068C16941F00801C1612068C1698B
:1035F00021F00401C1612068C1692A69114311E009
:10360000206801F0B1FD2068C16941F40061C16129
:103610002068C16921F48061C1612068C1692A699B
:1036200041EA0221C16184F83960002084F8380041
:1036300070BD10B5040003D094F8390010B107E054
:10364000012010BD002084F83800204600F00CF85E
:10365000022084F83900211D206801F079FC012046
:1036600084F83900002010BD7047704710B504463B
:103670000068012201F0CCFC08492068884202D091
:103680000749884203D1416C41F4004141642068FC
:10369000016841F001010160002010BD00000140FF
:1036A0000004014010B504460068002201F0B0FC9F
:1036B000114841F2111221689310814202D00F4843
:1036C000814209D1086A104206D1086A184203D122
:1036D000486C20F4004048642068016A114206D119
:1036E000016A194203D1016821F001010160012042
:1036F00084F83900002010BD0000014000040140A2
:103700000168B1F1804F16D10B490A78012A12D114
:1037100000220A7009490A88502A0CD20A3292B251
:103720000A80C06864215043B0FBF1F00449401E98
:1037300080B20968486370478D000020C4000020F3
:10374000100300207047704770B5040004D094F84F
:103750003900002510B106E0012070BD84F8385012
:10376000204600F023F8242084F839002068C1683E
:1037700021F40051C160204602F0AAF820680169D6
:1037800021F4904101612068416921F02A014161E1
:103790002068C16841F40051C160E563202084F8CD
:1037A000390084F83A00002070BD0000F0B50546ED
:1037B0000068DFF8B4C00024022301260327072194
:1037C0002A4A87B060452FD12948D0F800C04CF074
:1037D000100CC0F800C0006800F010000590CDE9A2
:1037E000037178028DE8490069461046FEF720FD16
:1037F000214E204830604FF00060C6E901044014BB
:10380000C6E903407461B461F461346230467462A5
:10381000FEF736FC20B140F26B1118A004F0F5F968
:103820006E63B56307B0F0BD1B4CA042FAD11048DF
:10383000001F046844F4003404600068049100F43C
:103840000030059008201D468DE8E1000C466946D1
:103850001046FEF7EDFC202004948DE8E100694657
:103860000E48FEF7E5FCDDE70010014000000240D5
:103870004438024040640240CC0300202E2E2F53D7
:1038800072632F73746D3332663478785F68616C5D
:103890005F6D73702E63000000440040000C024016
:1038A000F8B5044690F83A0020283CD1C1B3BAB329
:1038B00094F83800012836D0012084F83800A1623D
:1038C000A2850025E563222084F83A00636B17483F
:1038D000D863636B16481864636B1648D864606BD2
:1038E000134605650846666B216802463046091D89
:1038F000FEF730FC206801684168009184F8385078
:10390000C16841F48071C1602068416941F00101E2
:1039100041612068416941F0400141610020F8BDEA
:10392000FFE70120FBE70220F9E700005B580008F1
:10393000975800081158000810B50948FCF7A7FC73
:1039400082B264230649074800F011F8FDF796F9A2
:10395000BDE81040292202490348FFF7A1BF00003B
:10396000A40100208C0300204C03002070472DE9A7
:10397000F843044690F839001F4616460D462028A5
:1039800050D1A5B19EB194F8380001284AD0012049
:1039900084F838004FF00008C4F83C80212084F8F7
:1039A0003900FEF739FDA6848146E68426E0012031
:1039B000BDE8F883E08C401EE084A0684B46B0F57B
:1039C000805F4FF000024FF080012046009703D047
:1039D00002F0D4F8E8B90DE002F0D0F8C8B92888B0
:1039E0002168C0F308004860206908B16D1C05E03B
:1039F000AD1C03E0216815F8010B4860E08C00283D
:103A0000D8D14B46002240212046009702F0B6F85C
:103A100008B10320CCE7202084F8390084F83880EE
:103A20000020C5E70220C3E72DE9F05F06460068E5
:103A3000884600EB4814D4F808054FF0040B410702
:103A400008EB88004FF0050A4FF0100706EBC005A1
:103A500008D5C4F808B5D4F80C0540F00200C4F845
:103A60000C0532E0D4F80805800601D520202AE0B4
:103A7000D4F808054FF00809000710D5D4F80C0554
:103A800040F00200C4F80C0585F85DA0C4F8087584
:103A9000C4F808954146306803F04DFD15E0D4F8B0
:103AA0000805400511D5D4F80C0540F00200C4F813
:103AB0000C054146306803F03EFDC4F8087585F8F2
:103AC0005D904FF48060C4F80805D4F808058005BF
:103AD0000ED5D4F80C0540F00200C4F80C054146A0
:103AE00004F5A164306803F026FD4FF400708DE00A
:103AF000D4F808054FF00001C0074FF0010236D09E
:103B0000306930B1A86CD4F81035C3F31203C01A71
:103B1000E86485F85D20A965C4F8082595F83F009C
:103B200020B1022802D003280ED019E0D4F80C05E9
:103B300040F00200C4F80C05414604F5A164306869
:103B400003F0F9FC27600BE0D4F8000540F00050CA
:103B5000C4F8000585F85C2041463046FEF7B9FC04
:103B600015F8500F80F001002870BDE8F09FD4F8E0
:103B70000805800733D5D4F80C0520F00200C4F8FE
:103B80000C0595F85D000223012806D0052807D012
:103B9000062808D0082806D018E085F85C2015E033
:103BA00085F85CA012E0A86D421CAA65032803D921
:103BB000A96585F85CB001E085F85C30D4F80005B3
:103BC00020F0804040F00040C4F80005C4F80835FB
:103BD00095F85C2041463046FEF77BFCC5E7D4F8FB
:103BE0000805000614D5D4F80C0540F00200C4F80E
:103BF0000C05A86D4146401CA865062085F85D00AF
:103C000004F5A164306803F096FC80202060ACE7E6
:103C1000D4F80805C006A8D595F83F00032809D1B7
:103C2000D4F80C0540F00200C4F80C054146306899
:103C300003F081FC032085F85D00C4F8087595F851
:103C40003F0008B1022890D1D4F8000520F0804050
:103C500040F00040C4F8000587E72DE9F04702680E
:103C600002EB4114D4F808254FF0040C520709D593
:103C7000C4F808C5D4F80C0540F00200C4F80C05DF
:103C8000BDE8F087D4F8082501EB810392064FF0D8
:103C9000020600EBC30514D52022C4F8082595F8C8
:103CA0003D20012AECD185F85DC0D4F80C2542F006
:103CB0000202C4F80C25006803F03DFC85F85C6046
:103CC000DEE7D4F808254FF0000352060FD585F83B
:103CD0005DC0AB65D4F80C2542F00202C4F80C2597
:103CE000006804F5A16403F026FC402010E0D4F83D
:103CF000082592050ED5D4F80C2542F00202C4F82E
:103D00000C25006804F5A16403F015FC4FF4007065
:103D10002060B5E7D4F808254FF00108D20710D08D
:103D2000AB65D4F80C2542F00202C4F80C250068FB
:103D300004F5A16403F0FFFBC4F8008085F85D8002
:103D40009EE7D4F808254FF0080912074FF0050A3E
:103D50000DD5C4F80895D4F80C2542F00202C4F839
:103D60000C25006803F0E7FB85F85DA088E7D4F830
:103D700008254FF01007D20610D5AB65D4F80C25F6
:103D800042F00202C4F80C25006804F5A16403F0B7
:103D9000D2FB032085F85D00276071E7D4F8082581
:103DA00012060FD5D4F80C2542F00202C4F80C25F7
:103DB000006804F5A16403F0BEFB062085F85D00F1
:103DC0008020A5E7D4F80825520511D5D4F80C2594
:103DD00042F00202C4F80C25006804F5A16403F067
:103DE000AAFB27604FF48060206085F85D9047E76C
:103DF000D4F8082592078CD5D4F80C2522F00202BD
:103E0000C4F80C2595F85D20012A0AD0032A26D093
:103E1000042A13D0052A16D0062A17D0082A15D04E
:103E20001FE085F85C8095F83F20022A19D195F8AB
:103E3000512082F0010285F8512012E085F85C6083
:103E400085F83D300DE085F85CA00AE0AA6D571CAE
:103E5000AF65032A03D9AB6585F85CC001E085F83E
:103E60005C60C4F8086595F85C20FEF732FB07E754
:103E70007CB504680546D4F840040190D4F84004A9
:103E800020F02E000090019880070DD50198C00702
:103E900006D0A06920F00051A1612846FEF7C2FAC1
:103EA000009840F002000090019800072CD500987F
:103EB00040F008000090019840071AD5A869022830
:103EC00003D0E86803280CD00FE00198C0F341400C
:103ED0000228286803D0012103F07CFD05E00221BF
:103EE000FAE74EF66020C4F804042846FEF79AFA72
:103EF0000AE0D4F8400420F02E00C4F840042868FA
:103F0000816941F00051816101988006009802D5D5
:103F100040F020000090C4F840047CBD2DE9F04141
:103F2000024600680646016AC1F3434301F00F07E9
:103F3000C1F30A14022B25D1002C23D007EB8701F3
:103F400002EBC105696C00291CD0224603F061FD1B
:103F5000686C20446864E86C2044E86406EB471011
:103F6000D0F81015084A11420CD0D0F8001521F0F5
:103F7000804141F00041C0F8001515F8500F80F065
:103F800001002870BDE8F0810000F81FFEE7000086
:103F90001FB512481049124A01604FF48031416048
:103FA0000021816081610162C0E90A210124C0E928
:103FB0000314C46144610163FDF73FFE00B1FEE7F5
:103FC0000520CDE9000469460448FDF789FD002875
:103FD00000D0FEE71FBD0000002001406C02002061
:103FE0000100000F10B504490448FDF7CBFA02495F
:103FF000491E087010BD0000D50000207087000821
:104000002DE9F04F7C4887B00024016841F0100191
:104010000160016801F010010591016841F004019F
:104020000160016801F004010591016841F020017F
:104030000160016801F020010591016841F08001F3
:104040000160016801F080010591016841F0010102
:104050000160016801F001010591016841F0020170
:104060000160016801F002010591016841F0400121
:104070000160016801F040010591016841F008010B
:104080000160016801F008010591016841F4807147
:1040900001600068DFF864A100F4807005900022E0
:1040A0000F215046FEF7B3F9DFF854B14FF44057F3
:1040B000002239465846FEF7AAF94CF2C0380022D1
:1040C00041465048FEF7A3F9002210214E48FEF762
:1040D0009EF9002203214D48FEF799F94FF440491B
:1040E000002249464A48FEF792F900220F2149482A
:1040F000FEF78DF90F2601250096CDE9015469469A
:1041000050460394FEF794F80097CDE901546946B0
:1041100058460394FEF78CF843F63F40CDE900047F
:10412000694638480294FEF783F8CDF80080CDE95F
:104130000154694633480394FEF77AF81020009042
:10414000CDE90154694630480394FEF771F8032025
:104150000090CDE9015469462C480394FEF768F8B5
:10416000CDF80090CDE90154694629480394FEF743
:104170005FF8CDE90064284F694638460294FEF79F
:1041800057F84FF4E8708DE8310069463846FEF77D
:104190004FF8042000902148CDE9010469461B48EE
:1041A000FEF746F818208DE8310069461748FEF7FB
:1041B0003FF87001CDE90004694614480294FEF707
:1041C00037F80096CDE90154694612480394FEF78A
:1041D0002FF8F0208DE8310069460E48FEF728F8E8
:1041E000002201210820FEF787FB0820FEF778FB5C
:1041F00007B0BDE8F08F00003038024000100240E8
:104200000008024000140240001C02400018024056
:104210000004024000200240000C02400000211077
:1042200010B5134886B011490160A7210024C0E9E8
:1042300001144FF6FE71C0E903144461FEF7FAFF62
:1042400000B1FEE74FF48050009069460848FFF740
:1042500044F800B1FEE7049404A905480594FEF76C
:10426000C1FF002800D0FEE706B010BD00000140ED
:10427000D402002010B51C488EB04FF08041016080
:1042800029210024C0E901146321C0E90314FEF7C9
:10429000D1FF00B1FEE74FF48050079007A9124804
:1042A000FFF71BF800B1FEE70F48FFF7C2F900B1B6
:1042B000FEE70B940BA90C480C94FEF793FF00B19A
:1042C000FEE7602000901920CDE901040022694634
:1042D00005480494FFF745F900B1FEE70248FFF7EF
:1042E00029F90EB010BD00001003002010B5012206
:1042F0000649074801F023FF0649054802F07EFF02
:10430000BDE81040024802F0AEBF00007D72000818
:104310002C040020EC000020014802F0BBBE00008D
:104320002C0400202DE9F05F002582A003F04CFC56
:10433000854E4FF4805A51463046FEF75FF801280B
:104340000FD04FF4C8720021012000F0EFFC0221D1
:104350003046FEF753F87D4C4FF4804B012790B167
:104360006FE07B48007848B1012803D0022801D0D3
:1043700003287DD1BDE8F05F00F0F8B9BDE8F05F3B
:10438000002000F01DB9DFF8CC914FF48078414651
:104390004846FEF733F8012853D100F02FFB0122E5
:1043A00059466D48FEF733F800F0A6FA00216B4835
:1043B000FFF75CF9642001F0A7F836E004F08EF90D
:1043C00084ED0B0A41464846FEF718F820B1FCF789
:1043D00083FB002872D104E061A0616A03F0F4FB62
:1043E00029E001F0A3F898B16770642001F08CF81F
:1043F00028466D1CEDB20F280AD30025E06AFCF7B1
:104400005DF841EC100B60A053EC102B03F0DCFBCB
:10441000FCF7FAFA08B10220E072FCF785FB0128EC
:104420007BD0FCF73FFB002877D102213046FDF717
:10443000E5FF0028C2D000214848FFF733F901F01A
:104440006DF802213046FDF7D9FF012865D14FF400
:10445000806841463046FDF7D1FF01285DD15146C5
:104460003046FDF7CBFF002857D14FF4967000E09F
:104470005EE0FDF7ABFE00F0C1FA00225946364877
:10448000FDF7C5FF00F038FA00213448FFF7EEF8D9
:10449000642001F039F834E004F020F984ED0B0ACF
:1044A00041463046FDF7AAFF18B1FCF715FB28B9C5
:1044B00005E03AA0616A03F087FB28E02DE001F0F7
:1044C00035F898B16770642001F01EF828466D1C1D
:1044D000EDB20F280AD30025E06AFBF7EFFF41ECAD
:1044E000100B29A053EC102B03F06EFBFCF78CFA99
:1044F00000B1E772FCF718FB01280ED0FCF7D2FAE6
:1045000058B902213046FDF779FF0128C4D00021B7
:104510001248FFF7C7F801F001F84FF49670FDF765
:1045200055FEBDE8F05FC8220121084600F0FEBB41
:10453000BDE8F09F4D616E75616C206D6F64652004
:10454000656E640A00000000001402408C00002028
:104550001D0000200018024000040240100300204B
:104560004D616E75616C204D6F646520656E6420D1
:104570007265616368656420626F74746F6D3A2060
:1045800025640A0A000000006D6F74206375723A9A
:104590002025302E326620410A0000004D616E75E4
:1045A000616C20456E64205472617920726561638C
:1045B00068656420546F703A2025640A0A00000080
:1045C0002DE9F047814600274FF4C87A5246394614
:1045D000012000F0ABFB40A003F0F6FA00F00EFA69
:1045E000012291034248FDF712FF00F085F90021F6
:1045F0004048FFF73BF8642000F086FF4FF00108C9
:104600003D4C4FF480763D4D4EE000BF04F066F81F
:1046100084ED0B0AB9F1010F05D102213848FDF7ED
:10462000EDFE012809D031462846FDF7E7FE30B1FE
:10463000FCF752FA00283DD105E032A000E038A096
:1046400003F0C2FA36E000F071FFA0B184F80180F7
:10465000642000F059FF38467F1CFFB20F280AD3B0
:104660000027E06AFBF72AFF41EC100B35A053EC62
:10467000102B03F0A9FAE07A012810D0607A88B1F3
:10468000FCF7C2F918B10220E07284F80980FCF747
:104690004BFA012815D0FCF705FA28B111E084F88F
:1046A0000C8007E02CA0CBE731462846FDF7A6FE9C
:1046B0000128ABD000210F48FEF7F4FF2A49002063
:1046C00008605046FDF782FDBDE8F047C822012191
:1046D000084600F02BBB00000A4D414E55414C20CE
:1046E0004D4F4445205452415920444F574E0A00E3
:1046F00000040240100300208C000020001802403B
:1047000000140240547261792072656163686564C7
:104710002062656C6F77204952320A0A000000005F
:104720004D616E75616C206D6F64652054726179A6
:10473000207265616368656420426F74746F6D0AEE
:10474000000000006D6F74206375723A2025302ED2
:10475000326620410A0000006D616E75616C206F49
:104760006666200A00000000280000202DE9F047BE
:1047700000274FF4C8794A463946012000F0D6FA9E
:1047800039A003F021FA00F039F900224FF48041FA
:104790003B48FDF73CFE00F0AFF800213948FEF73A
:1047A00065FF642000F0B0FE4FF00108364C4FF476
:1047B0008066364D41E000BF03F090FF84ED0B0AA8
:1047C00031462846FDF71AFE20B1FCF785F900288E
:1047D00039D103E02EA003F0F7F934E000F0A6FE93
:1047E000A0B184F80180642000F08EFE38467F1C62
:1047F000FFB20F280AD30027E06AFBF75FFE41EC07
:10480000100B2BA053EC102B03F0DEF9E07A0228FA
:1048100010D0607AB8B1FCF7F7F818B184F80B80C3
:1048200084F80980FCF780F9012813D0FCF73AF9E5
:1048300018B10FE00220207305E031462846FDF74D
:10484000DDFD0128B8D000210E48FEF72BFF1D49E1
:10485000002008604846FDF7B9FCBDE8F047C822D3
:104860000121084600F062BA0A4D414E55414C20E4
:104870004D4F444520545241592055500A000000E4
:1048800000040240100300208C00002000140240AD
:104890004D616E75616C206D6F6465205472617935
:1048A000207265616368656420546F700A000000BF
:1048B0006D6F74206375723A2025302E3266204168
:1048C0000A00000028000020FEE770470907090ED3
:1048D000002806DA00F00F0000F1E02080F8141D37
:1048E000704700F1E02080F8001470470148FDF7A0
:1048F0004DBE0000F40700200548016805488161AD
:104900000021417101210172016AC16170470000FB
:10491000280000208C0000207047000070B504467D
:104920000068C168490614D44FF0FF31C160FDF73B
:1049300073FD05464FF47A7607E000BFFDF76CFD86
:10494000401BB04201D9032070BD2068C0684006FA
:10495000F4D5002070BD000070B5164D102128461A
:10496000FDF74CFD044640212846FDF747FD44EA8B
:10497000400010F0FF01104807D001290AD0022999
:104980000DD0032910D00A2070BD0B492831C16316
:10499000002070BD08492C31C163012070BD06495B
:1049A0003031C163022070BD03493431C16303203B
:1049B00070BD0000000C02401800002070B50E46CB
:1049C000002500F03FF800240FE00B48FDF7E4F964
:1049D00064210948FDF78EF90748FDF72BF90544D6
:1049E0000548FDF737FA641CA4B2B442EDD3B5FB19
:1049F000F6F080B270BD00006C02002007490A206A
:104A0000642208800649C868096800EB80004000FD
:104A1000B0FBF2F0401E486300F004B8C400002070
:104A2000100300200349002008600349087003496F
:104A3000087070479C000020900000208F0000202C
:104A4000704700001FB50021009101910291039170
:104A5000012110280FD2DFE800F00E080A0C1A1C02
:104A60001E20222426282A2C2E30009103E002202A
:104A700000E003200090019169461148FDF730F8ED
:104A8000002803D021210FA003F0BFF81FBD042090
:104A9000F0E70520EEE70620ECE70720EAE708202C
:104AA000E8E70920E6E70A20E4E70B20E2E70C202C
:104AB000E0E70D20DEE70E20DCE70F20DAE700005C
:104AC0006C0200202E2E5C5461736B735C53726316
:104AD0005C6164632E6300002DE9F04F664889B085
:104AE0004079022814D003DC38B101280BD106E04C
:104AF00003280FD00A2806D10EE060A100E062A1D1
:104B0000644803F083F86448007838B163A10AE090
:104B100064A1F5E766A1F3E768A1F1E703F022FDE0
:104B200000287CD068A15B48143003F06FF8DFF8F0
:104B3000A0A14FF400615046FDF760FC4E4E3125B8
:104B400044363027002401286AD0357074704FF441
:104B500080615046FDF752FCDFF81C81002808F107
:104B6000490840467ED0077088F801404FF48071B4
:104B70005848FDF743FCDFF80091002809F14E0981
:104B8000484671D080F8007089F801404FF4805198
:104B9000D3465046FDF732FCDFF8DCA000280AF1CE
:104BA000530A504662D007708AF8014001215846E6
:104BB000FDF724FC0028304800F1580058D0077059
:104BC000447002214248FDF719FCDFF8ACB0002820
:104BD0000BF15D0B58464DD080F800703E4F2648D3
:104BE0008BF801403DA162303A6803F00FF84FF4B2
:104BF00080513748FDF702FC3A491F4D087028786C
:104C00003949401C2870A86B401CA863884200D317
:104C1000AC6319493B685831CDE904A101E01BE0C0
:104C20001EE0CDE906B3AA6B1A4B8DE84403194A7E
:104C300014332EA1A2F1640002F0E8FF1548643895
:104C40002864FBF724FB296C09B082B2BDE8F04F61
:104C500005233348FEF78BBE32A164E702E003E090
:104C6000377073E705707FE705708DE705709BE788
:104C70000570A5E70570B1E7180000204B492D54D9
:104C80005241592D494E53004B492D545241592DF3
:104C9000504153007C010020900000204F564352A9
:104CA000000000004B492D545241592D46414C0003
:104CB0004B492D545241592D454D50004B492D54CF
:104CC0005241592D4E4F4E004F45525200000000A8
:104CD0000014024000180240B00000202530336468
:104CE00000000000C80000207F9698003C535458F4
:104CF0004025734025734058585858402530376434
:104D0000402573402573402573402573402573402B
:104D10002573402530336440454F463E0000000077
:104D20004C0300204E4F524D0000000010B51446B9
:104D3000421E032A0CD8084B01290AD00022014642
:104D40001846FDF764FB002C02D02046FDF73EFA22
:104D500010BD0122F3E70000001002402C4910B5FD
:104D600008684A68401C42F1000208604A6029480D
:104D700001684268491C42F100020160426001681A
:104D800042684FF47A73C91A72F1000107D3002206
:104D9000026042604FF480511F48FDF734FB1F480A
:104DA000007801280BD11E4908684A68104306D0D4
:104DB00008684A68401E42F1FF3208604A6019489C
:104DC0000078012804D11849086808B1401E08601D
:104DD0001648007818B116480168491C0160154949
:104DE00008684A68401C42F1000208604A604FF4BB
:104DF0007A73C01A72F1000004D300220A604A607C
:104E0000FFF76AFEFDF7E8FCBDE81040FEF7E4B9E5
:104E10000000002008000020000802401A000020C6
:104E20008000002094000020A80000208F000020B7
:104E30009C0000201000002030B52B489FB00025BA
:104E4000016841F080510160006800F080501D90C1
:104E50002648016841F4404101600068022400F4E2
:104E600040401D90052000904FF4803001900120BB
:104E700002908005CDE90640082008904FF4A87004
:104E8000CDE9090407200B906846FDF76FFF00B1DC
:104E9000FEE718A90F2081E831004FF4A0501B90C5
:104EA0004FF480501C90052118A8FDF771FE00B149
:104EB000FEE720200C90C00016900CA8FDF74EFDD8
:104EC00000B1FEE7FDF7FCFE4FF47A71B0FBF1F0A4
:104ED000FEF76EF90420FEF75EF900221146501E1F
:104EE000FDF70AFD1FB030BD4038024000700040A1
:104EF0001048016841F4700101600F48016841F0F9
:104F0000010101600C4A00210832116002680B4B5C
:104F10001A400260031D0A4A1A60026822F48022C5
:104F2000026005480C30016002495806803908606B
:104F30007047000088ED00E000380240FFFFF6FEF9
:104F4000103000240148FEF742BA00001003002090
:104F5000F0B50268234B244D244E254F254C4FF0CD
:104F6000804C984209D0604507D0A84205D0B04295
:104F700003D0B84201D0A04204D122F0700E4A689A
:104F800042EA0E0298421BD0604519D0A84217D0C1
:104F9000B04215D0B84213D0A04211D0164DA8424D
:104FA0000ED0164DA8420BD0154DA84208D0154D75
:104FB000A84205D0144DA84202D0144DA84203D1F6
:104FC00022F44075CA682A4302608A68C2620A688D
:104FD0008262984201D0A04201D109690163012196
:104FE0004161F0BD000001400004004000080040A5
:104FF000000C00400004014000400140004401401A
:105000000048014000180040001C00400020004003
:1050100010B50123046A8B409C430462036A8A40F2
:105020001343036210BD10B5846842EA032224F4DE
:105030007F440A432243826010BD826822F07002DE
:105040000A4342F0070181607047000030B5026AF0
:1050500022F001020262026A436884690D6824F04A
:105060007304254322F002048A6822430B4CA042B9
:1050700002D00B4CA0420BD122F00804CA6823F4E2
:10508000407322434C6922F004021C438B69234382
:105090004360856149684163026230BD00000140A0
:1050A0000004014030B5026A22F010020262026A76
:1050B000436884690D6824F4E64444EA05248D6855
:1050C00022F0200242EA05120D4DA84202D00D4DF9
:1050D000A8420ED1CD6822F0800242EA05124D6945
:1050E00023F4406343EA85038D6922F0400243EADA
:1050F00085034360846149688163026230BD0000BA
:10510000000001400004014030B5026A22F48072C0
:105110000262036A4268C46923F4007324F07305D1
:105120000C682C438D6843EA05230D4DA84202D03C
:105130000C4DA8420ED1CD6823F4006343EA052349
:105140004D6922F4405242EA05128D6923F48063CE
:1051500042EA05124260C4614968C163036230BD1E
:10516000000001400004014030B5026A22F4805280
:105170000262046A4268C3690D6823F4E64343EAA5
:1051800005238D6824F4005444EA0534084DA842F0
:1051900002D0084DA84204D14D6922F4804242EA6F
:1051A00085124260C36149680164046230BD000039
:1051B000000001400004014010B5036A046A24F0B5
:1051C00001040462846924F0F00444EA021423F028
:1051D0000A020A438461026210BD10B5036A23F01B
:1051E000100303628369046A23F4704343EA0232C2
:1051F00024F0A00343EA01118261016210BD0000A6
:10520000002587A002F0E0FC3220FBF7DFFB322014
:10521000FBF7DCFB3220FBF7D9FB01218548FDF7CA
:1052200033FF85490860FFF797FB844C60714FF4AA
:105230007A70FCF7CBFF00F085F9DFF804A2DFF805
:105240000492DFF804B200BFFFF766F802F0F2FB49
:10525000FFF782FB794C014660716278824202D08E
:105260007AA002F0B1FC607960707B480078012878
:10527000284605F1010525D0B0F5FA7F05D34FF496
:1052800000517648FDF7BFF800254FF47A70FBF720
:10529000CDFD4FF40068414656465046FDF7AEF846
:1052A00098B16FA002F090FC4FF4FA7749E010211A
:1052B0007148FDF7A8F84FF400516848FDF7A3F8CE
:1052C0000125E2E73228F2D2DFE799F800004F46E5
:1052D000012817D169480078012802D0022803D09C
:1052E00005E0FFF743FA02E00020FFF769F96348A1
:1052F000634A00230370117809B101701370012112
:105300008BF80010387840BB9BF80000012801D1D1
:10531000FFF708F8607902280AD003DC28B10128D9
:105320001BD105E0032818D102E0FCF74FF914E087
:10533000FBF792FD11E03846FBF748FB3846FCF7D7
:1053400045FF41463046FDF759F80128F3D04DA0FE
:1053500002F03AFC4948002101704FF48061B246E6
:105360003046FDF74BF84B4E317888420AD04FF467
:1053700080615046FDF742F801284CD046A000BF9E
:1053800002F022FC4FF480714948FDF737F8494F8D
:10539000397888420AD04FF480714548FDF72EF8DD
:1053A00001283AD044A000BF02F00EFC99F800108A
:1053B0008BF800104146D0465046FDF71FF844498F
:1053C00008704FF480614046FDF718F830704FF4D4
:1053D00080713748FDF712F838703E4E2069E06161
:1053E000307801287FF430AF234F01244FF4005868
:1053F0006420FCF7EBFE41461848FDF704F8102145
:105400003846FDF700F82046641CE4B26428EFD368
:105410000020307018E730A0B2E735A0C4E70000E4
:1054200044454255472050474D2053544152540A59
:1054300000000000B4020020B0000020180000208E
:1054400000140240950000209600002054726179FB
:105450003A2025640A0000008E0000200008024067
:10546000446F6F72206F70656E6564206D61696E48
:10547000206C6F6F700A0000001C02409700002033
:1054800098000020446F6F7220636C6F7365640A2C
:1054900000000000C60000204C696D69742073771D
:1054A00069746368203120636C6F7365640A00005F
:1054B00000180240C70000204C696D6974207377A2
:1054C00069746368203220636C6F7365640A00003E
:1054D0008C000020900000204C696D697420737767
:1054E000697463682031206F70656E0A00000000E7
:1054F0004C696D6974207377697463682032206F1A
:1055000070656E0A00000000034900228866CA66C2
:105510000120887070470000180000200248002118
:1055200081708166C1667047180000200449886E4A
:10553000CA6E10434FF0000001D1887001207047FF
:10554000180000202DE9F05F8D4D4FF00008DFF8C6
:10555000349228788C4E4446C2464FF480574FF020
:10556000010B02287AD003DC28B1012875D175E03F
:105570000328FBD172E039463046FCF73FFF012893
:1055800000D1012439463046FCF738FF0128EDD11F
:1055900007027E4E39463046FCF730FF0128E5D140
:1055A00001247BA002F010FB4FF4FA70FCF70EFE12
:1055B000FFF724FA012291037B48FCF728FFFFF74D
:1055C0009BF900217948FEF751F86420FFF79CFF12
:1055D00031E000BF03F082F889ED0B0A394630460E
:1055E000FCF70CFF68B3FBF777FA50BBFFF79EFFA1
:1055F000B8B189F801B06420FFF786FF4046411C2E
:1056000001F0FF080F280CD34FF00008D9F82C0048
:10561000FAF754FF41EC100B65A053EC102B02F08D
:10562000D3FAFBF7F1F9FBF77FFA012815D0FBF766
:1056300039FA00289AD139463046FCF7DFFE0128B6
:10564000C8D000215948FEF72DF85EA002F0BCFA40
:105650006249C1F800A089F806B07EE039463046BC
:10566000FCF7CCFE012803D12878032800D10124BF
:1056700039463046FCF7C2FE01286ED18102304621
:10568000FCF7BCFE012868D12878032800D101244A
:1056900053A002F099FA4FF4FA70FCF797FD00223C
:1056A0004FF480414048FCF7B2FEFFF7A7F9FFF73F
:1056B00023F900213D48FDF7D9FF6420FFF724FFBF
:1056C0004F464FF480692EE003F008F887ED0B0A8F
:1056D00002213046FCF792FE88B3FBF7FDF970BB60
:1056E000FFF724FFB0B187F801B06420FFF70CFF8B
:1056F0004046411C01F0FF080F280BD34FF0000873
:10570000F86AFAF7DBFE41EC100B29A053EC102BE2
:1057100002F05AFAFBF778F9FBF706FA01281CD0D9
:10572000FBF7C0F9C8B949463046FCF767FE0128C7
:1057300005D102213046FCF761FE0128C4D00021CA
:105740001A48FDF7AFFF2CA002F03EFA52460121A5
:105750002E48C7F824A0FDF79CFC287808B1032840
:105760000CD1002C0AD14FF49670FCF72FFDBDE848
:10577000F05FC82201210846FFF7D8BABDE8F09FC4
:105780001D0000208C000020001402400018024080
:105790007472617920656D70747909204D6F746F32
:1057A0007220444F574E0A000004024010030020AC
:1057B0006D6F74206375723A2025302E3266204159
:1057C0000A00000054726179207265616368656443
:1057D00020426F74746F6D0A0000000028000020E2
:1057E0007472617920656D70747909204D6F746FE2
:1057F000722055500A000000547261792072656170
:105800006368656420546F700A000000B4020020D1
:1058100070B5846B2068406994F83910C0F3C010EB
:105820000025212904D118B1E584204600F046F86E
:105830002068406994F83A10C0F38010222904D1FE
:1058400018B1E585204600F02BF8E06B40F0100021
:10585000E0632046FDF777FF70BD10B50146806B11
:1058600009680968C90513D40021C1850168CA689F
:1058700022F48072CA6001684A6922F001024A611A
:1058800001684A6922F040024A61202180F83A10FA
:10589000FEF752F810BD10B5806BFEF767F810BD2B
:1058A0000168CA6822F49072CA6001684A6922F0ED
:1058B00001024A61202180F83A1070470168CA68E5
:1058C00022F0C002CA60202180F839107047000021
:1058D0002DE9F04104460068016921F44052E16875
:1058E000114301612168C86849F20C629043236941
:1058F000A268E5691A4363692B431A430243CA60ED
:105900002168486920F44072A06910434861E16948
:105910006425B1F5004F9748974A21684FF0320847
:105920003FD0914201D081427CD1FDF7DFF900EBFD
:10593000C00101EB001061688900B0FBF1F6FDF7D2
:10594000D5F900EBC00101EB001061688900B0FBE4
:10595000F1F0B0FBF5F06FF01801484306EB800161
:1059600008EB0110B0FBF5F000F0F006FDF7BEF912
:1059700000EBC00101EB001061688900B0FBF1F0A1
:10598000B0FBF5F006EB0016FDF7B0F900EBC00137
:1059900001EB001061688900B0FBF1F7FDF7A6F993
:1059A000D2E0914201D081423DD1FDF79FF900EB59
:1059B000C00101EB001061684900B0FBF1F0B0FBE1
:1059C000F5F00601FDF792F900EBC00101EB0010C4
:1059D00061684900B0FBF1F7FDF788F900EBC00101
:1059E00001EB001061684900B0FBF1F0B0FBF5F08D
:1059F0006FF01801484307EB800108EBC100B0FBD2
:105A0000F5F000F0F80006EB4006FDF76FF900EB4B
:105A1000C00101EB001061684900B0FBF1F7FDF730
:105A200065F93CE055E0FDF751F900EBC00101EBF1
:105A3000001061684900B0FBF1F0B0FBF5F0060121
:105A4000FDF744F900EBC00101EB0010616849006B
:105A5000B0FBF1F7FDF73AF900EBC00101EB0010E4
:105A600061684900B0FBF1F0B0FBF5F06FF0180190
:105A7000484307EB800108EBC100B0FBF5F000F0F4
:105A8000F80006EB4006FDF721F900EBC00101EB41
:105A9000001061684900B0FBF1F7FDF717F900EB62
:105AA000C00101EB001061684900B0FBF1F0B0FBF0
:105AB000F5F06FF01801484307EB800108EBC100D7
:105AC000B0FBF5F000F00700216830448860BDE8C5
:105AD000F081FDF7FBF800EBC00101EB00106168FD
